{"abi":[{"type":"function","name":"createPool","inputs":[{"name":"tokenA","type":"address","internalType":"address"},{"name":"tokenB","type":"address","internalType":"address"},{"name":"tickLower","type":"int24","internalType":"int24"},{"name":"tickUpper","type":"int24","internalType":"int24"},{"name":"fee","type":"uint24","internalType":"uint24"}],"outputs":[{"name":"pool","type":"address","internalType":"address"}],"stateMutability":"nonpayable"},{"type":"function","name":"getPool","inputs":[{"name":"tokenA","type":"address","internalType":"address"},{"name":"tokenB","type":"address","internalType":"address"},{"name":"index","type":"uint32","internalType":"uint32"}],"outputs":[{"name":"","type":"address","internalType":"address"}],"stateMutability":"view"},{"type":"function","name":"parameters","inputs":[],"outputs":[{"name":"factory","type":"address","internalType":"address"},{"name":"tokenA","type":"address","internalType":"address"},{"name":"tokenB","type":"address","internalType":"address"},{"name":"tickLower","type":"int24","internalType":"int24"},{"name":"tickUpper","type":"int24","internalType":"int24"},{"name":"fee","type":"uint24","internalType":"uint24"}],"stateMutability":"view"},{"type":"function","name":"pools","inputs":[{"name":"","type":"address","internalType":"address"},{"name":"","type":"address","internalType":"address"},{"name":"","type":"uint256","internalType":"uint256"}],"outputs":[{"name":"","type":"address","internalType":"address"}],"stateMutability":"view"},{"type":"event","name":"PoolCreated","inputs":[{"name":"token0","type":"address","indexed":false,"internalType":"address"},{"name":"token1","type":"address","indexed":false,"internalType":"address"},{"name":"index","type":"uint32","indexed":false,"internalType":"uint32"},{"name":"tickLower","type":"int24","indexed":false,"internalType":"int24"},{"name":"tickUpper","type":"int24","indexed":false,"internalType":"int24"},{"name":"fee","type":"uint24","indexed":false,"internalType":"uint24"},{"name":"pool","type":"address","indexed":false,"internalType":"address"}],"anonymous":false}],"bytecode":{"object":"0x608060405234801561000f575f80fd5b506134378061001d5f395ff3fe608060405234801561000f575f80fd5b506004361061004a575f3560e01c80630c2d4e4e1461004e578063169c4cef1461007e57806371c54fc91461009157806389035730146100a4575b5f80fd5b61006161005c3660046107c6565b610131565b6040516001600160a01b0390911681526020015b60405180910390f35b61006161008c36600461082f565b6105f1565b61006161009f366004610868565b61062f565b600154600280546003546100e9936001600160a01b03908116939281169290821691600160a01b8104820b91600160b81b8204900b90600160d01b900462ffffff1686565b604080516001600160a01b03978816815295871660208701529390951692840192909252600290810b60608401520b608082015262ffffff90911660a082015260c001610075565b5f846001600160a01b0316866001600160a01b03160361018e5760405162461bcd60e51b81526020600482015260136024820152724944454e544943414c5f41444452455353455360681b60448201526064015b60405180910390fd5b5f8061019a888861074d565b6001600160a01b038083165f908152602081815260408083209385168352928152828220805484518184028101840190955280855295975093955090939192919083018282801561021257602002820191905f5260205f20905b81546001600160a01b031681526001909101906020018083116101f4575b505050505090505f5b81518110156103c1575f828281518110610237576102376108b4565b602002602001015190508860020b816001600160a01b03166359c4f9056040518163ffffffff1660e01b8152600401602060405180830381865afa158015610281573d5f803e3d5ffd5b505050506040513d601f19601f820116820180604052508101906102a591906108c8565b60020b14801561031957508760020b816001600160a01b03166355b812a86040518163ffffffff1660e01b8152600401602060405180830381865afa1580156102f0573d5f803e3d5ffd5b505050506040513d601f19601f8201168201806040525081019061031491906108c8565b60020b145b801561038d57508662ffffff16816001600160a01b031663ddca3f436040518163ffffffff1660e01b8152600401602060405180830381865afa158015610362573d5f803e3d5ffd5b505050506040513d601f19601f8201168201806040525081019061038691906108ea565b62ffffff16145b156103b8578282815181106103a4576103a46108b4565b6020026020010151955050505050506105e8565b5060010161021b565b506040805160c081018252308082526001600160a01b03868116602080850182905291871684860181905260028d810b60608701528c810b608087015262ffffff808d1660a0909701879052600180546001600160a01b03199081169097179055815490951690921790915560038054600160d01b90950262ffffff60d01b19858e16600160b81b021665ffffffffffff60b81b19958f16600160a01b026001600160b81b031990971690931795909517939093161792909217905590515f916104ca91869186918c918c918c91016001600160a01b039586168152939094166020840152600291820b6040840152900b606082015262ffffff91909116608082015260a00190565b604051602081830303815290604052805190602001209050806040516104ef9061077d565b8190604051809103905ff590508015801561050c573d5f803e3d5ffd5b506001600160a01b038581165f818152602081815260408083208986168085529083528184208054600180820183559186529484902090940180549688166001600160a01b0319978816811790915584548716909455600280549096168655600380546001600160e81b0319169055885182519586529285015263ffffffff909116838201528c840b6060840152928b900b608083015262ffffff8a1660a083015260c082015290519196507fe026b1b60fa8f2d35cd0844432a7b513a5a112d8cfe2b30bc62c1c4b81373c75919081900360e00190a1505050505b95945050505050565b5f602052825f5260405f20602052815f5260405f208181548110610613575f80fd5b5f918252602090912001546001600160a01b0316925083915050565b5f826001600160a01b0316846001600160a01b0316036106875760405162461bcd60e51b81526020600482015260136024820152724944454e544943414c5f41444452455353455360681b6044820152606401610185565b6001600160a01b038416158015906106a757506001600160a01b03831615155b6106e25760405162461bcd60e51b815260206004820152600c60248201526b5a45524f5f4144445245535360a01b6044820152606401610185565b5f806106ee868661074d565b6001600160a01b038083165f9081526020818152604080832093851683529290522080549294509092509063ffffffff861690811061072f5761072f6108b4565b5f918252602090912001546001600160a01b03169695505050505050565b5f80826001600160a01b0316846001600160a01b03161061076f578284610772565b83835b915091509250929050565b612afc8061090683390190565b80356001600160a01b03811681146107a0575f80fd5b919050565b8060020b81146107b3575f80fd5b50565b62ffffff811681146107b3575f80fd5b5f805f805f60a086880312156107da575f80fd5b6107e38661078a565b94506107f16020870161078a565b93506040860135610801816107a5565b92506060860135610811816107a5565b91506080860135610821816107b6565b809150509295509295909350565b5f805f60608486031215610841575f80fd5b61084a8461078a565b92506108586020850161078a565b9150604084013590509250925092565b5f805f6060848603121561087a575f80fd5b6108838461078a565b92506108916020850161078a565b9150604084013563ffffffff811681146108a9575f80fd5b809150509250925092565b634e487b7160e01b5f52603260045260245ffd5b5f602082840312156108d8575f80fd5b81516108e3816107a5565b9392505050565b5f602082840312156108fa575f80fd5b81516108e3816107b656fe61014060405234801562000011575f80fd5b50336001600160a01b031663890357306040518163ffffffff1660e01b815260040160c060405180830381865afa1580156200004f573d5f803e3d5ffd5b505050506040513d601f19601f82011682018060405250810190620000759190620000d7565b62ffffff1660e052600290810b610120520b610100526001600160a01b0390811660c05290811660a052166080526200015e565b80516001600160a01b0381168114620000c0575f80fd5b919050565b8051600281900b8114620000c0575f80fd5b5f805f805f8060c08789031215620000ed575f80fd5b620000f887620000a9565b95506200010860208801620000a9565b94506200011860408801620000a9565b93506200012860608801620000c5565b92506200013860808801620000c5565b915060a087015162ffffff8116811462000150575f80fd5b809150509295509295509295565b60805160a05160c05160e05161010051610120516128fb620002015f395f8181610278015281816105bb0152818161110a0152611c9601525f81816103230152818161058f015281816110d30152611cce01525f8181610403015261065101525f81816103dc015281816108bb01528181610bac0152611c4d01525f818161011a015281816109a401528181610b260152611a4001525f6103b501526128fb5ff3fe608060405234801561000f575f80fd5b5060043610610111575f3560e01c806360d49d531161009e578063c45a01551161006e578063c45a0155146103b0578063d21220a7146103d7578063ddca3f43146103fe578063f305839914610439578063f637731d14610442575f80fd5b806360d49d53146103455780638db791d21461037857806390bc16931461038a57806392f026ad1461039d575f80fd5b80633eaf5d9f116100e45780633eaf5d9f14610236578063461413191461025c57806355b812a81461027357806355f575101461029a57806359c4f9051461031e575f80fd5b80630dfe168114610115578063128acb081461015957806316c19739146101815780631a6865021461020b575b5f80fd5b61013c7f000000000000000000000000000000000000000000000000000000000000000081565b6040516001600160a01b0390911681526020015b60405180910390f35b61016c610167366004612517565b610457565b60408051928352602083019190915201610150565b6101d561018f366004612597565b6001600160a01b03165f9081526004602052604090208054600282015460038301546001909301546001600160801b0380841695929493600160801b9004811692911690565b604080516001600160801b039687168152602081019590955284019290925283166060830152909116608082015260a001610150565b60015461021e906001600160801b031681565b6040516001600160801b039091168152602001610150565b5f5461024990600160a01b900460020b81565b60405160029190910b8152602001610150565b61026560035481565b604051908152602001610150565b6102497f000000000000000000000000000000000000000000000000000000000000000081565b6102e56102a8366004612597565b60046020525f908152604090208054600182015460028301546003909301546001600160801b0380841694600160801b9094048116939216919085565b604080516001600160801b039687168152948616602086015292909416918301919091526060820152608081019190915260a001610150565b6102497f000000000000000000000000000000000000000000000000000000000000000081565b6103586103533660046125c8565b610a52565b604080516001600160801b03938416815292909116602083015201610150565b5f5461013c906001600160a01b031681565b61016c61039836600461260a565b610c39565b61016c6103ab366004612623565b610e4d565b61013c7f000000000000000000000000000000000000000000000000000000000000000081565b61013c7f000000000000000000000000000000000000000000000000000000000000000081565b6104257f000000000000000000000000000000000000000000000000000000000000000081565b60405162ffffff9091168152602001610150565b61026560025481565b610455610450366004612597565b611062565b005b5f80855f036104925760405162461bcd60e51b8152602060048201526002602482015261415360f01b60448201526064015b60405180910390fd5b866104d5575f546001600160a01b039081169086161180156104d0575073fffd8963efd1fc6a506488495d951d5263988d266001600160a01b038616105b6104ff565b5f546001600160a01b039081169086161080156104ff57506401000276a36001600160a01b038616115b6105315760405162461bcd60e51b815260206004820152600360248201526214d41360ea1b6044820152606401610489565b6040805160e0810182528781525f6020820181905280546001600160a01b0316928201929092528188139190606081018a61056e57600354610572565b6002545b81526020015f81526020015f81526020015f81525090505f6105b37f00000000000000000000000000000000000000000000000000000000000000006111d7565b90505f6105df7f00000000000000000000000000000000000000000000000000000000000000006111d7565b90505f8b6105ed57816105ef565b825b5f54909150610675906001600160a01b03168d610620578b6001600160a01b0316836001600160a01b031611610636565b8b6001600160a01b0316836001600160a01b0316105b6106405782610642565b8b5b6001546001600160801b03168e7f000000000000000000000000000000000000000000000000000000000000000061148f565b60c088015260a087015260808601526001600160a01b0316604085018190525f80546001600160a01b031916821790556106ae906116a4565b5f805462ffffff92909216600160a01b0262ffffff60a01b1990921691909117905560c08401516001546106f19190600160801b906001600160801b0316611934565b846060018181516107029190612696565b9052508b15610718576060840151600255610721565b60608401516003555b841561077c576107438460c00151856080015161073e9190612696565b6119d1565b845185906107529083906126a9565b90525060a084015161077290610767906119d1565b6020860151906119e5565b60208501526107c8565b6107898460a001516119d1565b845185906107989083906126cf565b90525060c084015160808501516107c2916107b79161073e9190612696565b602086015190611a09565b60208501525b8415158c1515146107e957602084015184516107e4908d6126a9565b6107fb565b83516107f5908c6126a9565b84602001515b90975095508b156108ef575f61080f611a27565b604051637d241f3960e11b8152909150339063fa483e729061083b908b908b908f908f9060040161271e565b5f604051808303815f87803b158015610852575f80fd5b505af1158015610864573d5f803e3d5ffd5b50505050610870611a27565b61087a828a611b20565b11156108ae5760405162461bcd60e51b815260206004820152600360248201526249494160e81b6044820152606401610489565b5f8712156108e9576108e97f00000000000000000000000000000000000000000000000000000000000000008f6108e48a612747565b611b39565b506109cf565b5f6108f8611c34565b604051637d241f3960e11b8152909150339063fa483e7290610924908b908b908f908f9060040161271e565b5f604051808303815f87803b15801561093b575f80fd5b505af115801561094d573d5f803e3d5ffd5b50505050610959611c34565b6109638289611b20565b11156109975760405162461bcd60e51b815260206004820152600360248201526249494160e81b6044820152606401610489565b5f8812156109cd576109cd7f00000000000000000000000000000000000000000000000000000000000000008f6108e48b612747565b505b5f54600154604080518a8152602081018a90526001600160a01b03808516828401526001600160801b039093166060820152600160a01b90930460020b608084015251908f169133917fc42079f94a6350d7e6235f29174924f928cc2ac818eb64fed8004e115fbcca679181900360a00190a35050505050965096945050505050565b335f90815260046020526040812080548291906001600160801b03600160801b909104811690861611610a855784610a98565b8054600160801b90046001600160801b03165b60018201549093506001600160801b0390811690851611610ab95783610ac8565b60018101546001600160801b03165b91506001600160801b03831615610b5557805483908290601090610afd908490600160801b90046001600160801b0316612761565b92506101000a8154816001600160801b0302191690836001600160801b03160217905550610b557f000000000000000000000000000000000000000000000000000000000000000087856001600160801b0316611b39565b6001600160801b03821615610bdb576001810180548391905f90610b839084906001600160801b0316612761565b92506101000a8154816001600160801b0302191690836001600160801b03160217905550610bdb7f000000000000000000000000000000000000000000000000000000000000000087846001600160801b0316611b39565b604080516001600160a01b03881681526001600160801b038581166020830152841681830152905133917f38c069c2e9bc192f8cf4f1b85be791ccc0d04bb12c4ca71a3fbfe96ea0932dd5919081900360600190a250935093915050565b5f805f836001600160801b031611610c9e5760405162461bcd60e51b815260206004820152602260248201527f4275726e20616d6f756e74206d7573742062652067726561746572207468616e604482015261020360f41b6064820152608401610489565b335f908152600460205260409020546001600160801b039081169084161115610d095760405162461bcd60e51b815260206004820152601d60248201527f4275726e20616d6f756e742065786365656473206c69717569646974790000006044820152606401610489565b5f80610d3c6040518060400160405280336001600160a01b0316815260200187610d3290612781565b600f0b9052611c7f565b9150915081610d4a90612747565b9350610d5581612747565b92505f841180610d6457505f83115b15610dfa57335f90815260046020526040902054610d93908590600160801b90046001600160801b03166127ae565b335f90815260046020526040902060010154610db99085906001600160801b03166127ae565b335f9081526004602052604090206001810180546001600160801b0319166001600160801b0393841617905580548216600160801b93909216929092021790555b604080516001600160801b03871681526020810186905290810184905233907fd4885a46e0c2f00ffdf2adb97a3909fd129dc1acccead462f7e29e6f18e54ec19060600160405180910390a25050915091565b5f805f856001600160801b031611610eb25760405162461bcd60e51b815260206004820152602260248201527f4d696e7420616d6f756e74206d7573742062652067726561746572207468616e604482015261020360f41b6064820152608401610489565b5f80610edd60405180604001604052808a6001600160a01b0316815260200189600f0b815250611c7f565b90945092508391508290505f808315610efb57610ef8611a27565b91505b8415610f0c57610f09611c34565b90505b604051639f382e9b60e01b81523390639f382e9b90610f3590899089908d908d9060040161271e565b5f604051808303815f87803b158015610f4c575f80fd5b505af1158015610f5e573d5f803e3d5ffd5b505050505f861115610faf57610f72611a27565b610f7c8388611b20565b1115610faf5760405162461bcd60e51b815260206004820152600260248201526104d360f41b6044820152606401610489565b8415610ffa57610fbd611c34565b610fc78287611b20565b1115610ffa5760405162461bcd60e51b81526020600482015260026024820152614d3160f01b6044820152606401610489565b604080513381526001600160801b038b166020820152908101879052606081018690526001600160a01b038b16907f011d4be6213866bff035f68967364cf69c5c01ff5bc23ff0a275f08a04381e6a9060800160405180910390a25050505094509492505050565b5f546001600160a01b0316156110a85760405162461bcd60e51b815260206004820152600b60248201526a125392551250531256915160aa1b6044820152606401610489565b6110b1816116a4565b5f805462ffffff60a01b1916600160a01b62ffffff93909316830217908190557f0000000000000000000000000000000000000000000000000000000000000000600290810b92909104900b1280159061113a57505f547f0000000000000000000000000000000000000000000000000000000000000000600290810b600160a01b909204900b125b6111b65760405162461bcd60e51b815260206004820152604160248201527f7371727450726963655839362073686f756c642062652077697468696e20746860448201527f652072616e6765206f66205b7469636b4c6f7765722c207469636b55707065726064820152602960f81b608482015260a401610489565b5f80546001600160a01b0319166001600160a01b0392909216919091179055565b60020b5f60ff82901d80830118620d89e8811115611200576112006345c3193d60e11b84611eb8565b7001fffcb933bd6fad37aa2d162d1a5940016001821602600160801b18600282161561123c576ffff97272373d413259a46990580e213a0260801c5b600482161561125b576ffff2e50f5f656932ef12357cf3c7fdcc0260801c5b600882161561127a576fffe5caca7e10e4e61c3624eaa0941cd00260801c5b6010821615611299576fffcb9843d60f6159c9db58835c9266440260801c5b60208216156112b8576fff973b41fa98c081472e6896dfb254c00260801c5b60408216156112d7576fff2ea16466c96a3843ec78b326b528610260801c5b60808216156112f6576ffe5dee046a99a2a811c461f1969c30530260801c5b610100821615611316576ffcbe86c7900a88aedcffc83b479aa3a40260801c5b610200821615611336576ff987a7253ac413176f2b074cf7815e540260801c5b610400821615611356576ff3392b0822b70005940c7a398e4b70f30260801c5b610800821615611376576fe7159475a2c29b7443b29c7fa6e889d90260801c5b611000821615611396576fd097f3bdfd2022b8845ad8f792aa58250260801c5b6120008216156113b6576fa9f746462d870fdf8a65dc1f90e061e50260801c5b6140008216156113d6576f70d869a156d2a1b890bb3df62baf32f70260801c5b6180008216156113f6576f31be135f97d08fd981231505542fcfa60260801c5b62010000821615611417576f09aa508b5b7a84e1c677de54f3e99bc90260801c5b62020000821615611437576e5d6af8dedb81196699c329225ee6040260801c5b62040000821615611456576d2216e584f5fa1ea926041bedfe980260801c5b62080000821615611473576b048a170391f7dc42444e8fa20260801c5b5f84131561147f575f19045b63ffffffff0160201c9392505050565b5f8080806001600160a01b03808916908a161015818712801590611519575f6114cd896114bf8a620f42406127ce565b62ffffff16620f4240611934565b9050826114e6576114e18c8c8c6001611ec7565b6114f3565b6114f38b8d8c6001611f4f565b9550858110611504578a9650611513565b6115108c8b8386612012565b96505b5061156b565b8161152f5761152a8b8b8b5f611f4f565b61153b565b61153b8a8c8b5f611ec7565b93508361154789612747565b106115545789955061156b565b6115688b8a6115628b612747565b8561205a565b95505b6001600160a01b038a81169087161482156115cd5780801561158a5750815b6115a05761159b878d8c6001611f4f565b6115a2565b855b95508080156115af575081155b6115c4576115bf878d8c5f611ec7565b6115c6565b845b9450611616565b8080156115d75750815b6115ed576115e88c888c6001611ec7565b6115ef565b855b95508080156115fc575081155b6116115761160c8c888c5f611f4f565b611613565b845b94505b8115801561162b575061162889612747565b85115b1561163c5761163989612747565b94505b81801561165b57508a6001600160a01b0316876001600160a01b031614155b156116715761166a868a6127ea565b9350611695565b6116928662ffffff8a166116888b620f42406127ce565b62ffffff166120a0565b93505b50505095509550955095915050565b5f73fffd8963efd1fc6a506488495d951d51639616826401000276a21983016001600160a01b031611156116e3576116e36318521d4960e21b836120d0565b640100000000600160c01b03602083901b16805f611700826120e5565b60ff1690506080811061171b57607f810383901c9150611725565b80607f0383901b91505b908002607f81811c60ff83811c9190911c800280831c81831c1c800280841c81841c1c800280851c81851c1c800280861c81861c1c800280871c81871c1c800280881c81881c1c800280891c81891c1c8002808a1c818a1c1c8002808b1c818b1c1c8002808c1c818c1c1c8002808d1c818d1c1c8002808e1c9c81901c9c909c1c80029c8d901c9e9d607f198f0160401b60c09190911c678000000000000000161760c19b909b1c674000000000000000169a909a1760c29990991c672000000000000000169890981760c39790971c671000000000000000169690961760c49590951c670800000000000000169490941760c59390931c670400000000000000169290921760c69190911c670200000000000000161760c79190911c670100000000000000161760c89190911c6680000000000000161760c99190911c6640000000000000161760ca9190911c6620000000000000161760cb9190911c6610000000000000161760cc9190911c6608000000000000161760cd9190911c66040000000000001617693627a301d71055774c8581026f028f6481ab7f045a5af012a19d003aa9198101608090811d906fdb2df09e81959a81455e260799a0632f8301901d600281810b9083900b1461192557886001600160a01b031661190a826111d7565b6001600160a01b0316111561191f5781611927565b80611927565b815b9998505050505050505050565b5f838302815f1985870982811083820303915050808411611953575f80fd5b805f03611965575082900490506119ca565b5f848688095f868103871696879004966002600389028118808a02820302808a02820302808a02820302808a02820302808a02820302808a02909103029181900381900460010186841190950394909402919094039290920491909117919091029150505b9392505050565b5f600160ff1b82106119e1575f80fd5b5090565b5f80821215836119f584826126a9565b925082131514611a03575f80fd5b92915050565b5f8082121583611a1984826126cf565b925082121514611a03575f80fd5b6040513060248201525f90819081906001600160a01b037f000000000000000000000000000000000000000000000000000000000000000016906370a0823160e01b906044015b60408051601f198184030181529181526020820180516001600160e01b03166001600160e01b0319909416939093179092529051611aac91906127fd565b5f60405180830381855afa9150503d805f8114611ae4576040519150601f19603f3d011682016040523d82523d5f602084013e611ae9565b606091505b5091509150818015611afd57506020815110155b611b05575f80fd5b80806020019051810190611b199190612829565b9250505090565b5f82611b2c8382612696565b9150811015611a03575f80fd5b604080516001600160a01b038481166024830152604480830185905283518084039091018152606490920183526020820180516001600160e01b031663a9059cbb60e01b17905291515f92839290871691611b9491906127fd565b5f604051808303815f865af19150503d805f8114611bcd576040519150601f19603f3d011682016040523d82523d5f602084013e611bd2565b606091505b5091509150818015611bfc575080511580611bfc575080806020019051810190611bfc9190612840565b611c2d5760405162461bcd60e51b81526020600482015260026024820152612a2360f11b6044820152606401610489565b5050505050565b6040513060248201525f90819081906001600160a01b037f000000000000000000000000000000000000000000000000000000000000000016906370a0823160e01b90604401611a6e565b5f80548190611cc4906001600160a01b0316611cba7f00000000000000000000000000000000000000000000000000000000000000006111d7565b8560200151612170565b9150611d0a611cf27f00000000000000000000000000000000000000000000000000000000000000006111d7565b5f5460208601516001600160a01b03909116906121b0565b83516001600160a01b03165f90815260046020526040812060028082015490549394509092611d5191611d3c916127ea565b83546001600160801b0316600160801b611934565b90505f611d7e8360030154600354611d6991906127ea565b84546001600160801b0316600160801b611934565b6002805490850155600380549085015590506001600160801b038216151580611daf57505f816001600160801b0316115b15611e4657825482908490601090611dd8908490600160801b90046001600160801b03166127ae565b92506101000a8154816001600160801b0302191690836001600160801b0316021790555080836001015f8282829054906101000a90046001600160801b0316611e2191906127ae565b92506101000a8154816001600160801b0302191690836001600160801b031602179055505b6001546020870151611e61916001600160801b0316906121e2565b600180546001600160801b0319166001600160801b0392831617905583546020880151611e929291909116906121e2565b83546001600160801b0319166001600160801b0391909116179092555091939092509050565b815f528060020b60045260245ffd5b5f836001600160a01b0316856001600160a01b03161115611ee6579293925b81611f1a57611f156001600160801b038416611f02878761285b565b6001600160a01b0316600160601b611934565b611f44565b611f446001600160801b038416611f31878761285b565b6001600160a01b0316600160601b6120a0565b90505b949350505050565b5f836001600160a01b0316856001600160a01b03161115611f6e579293925b600160601b600160e01b03606084901b165f611f8a878761285b565b6001600160a01b031690505f876001600160a01b031611611fa9575f80fd5b83611fdb57866001600160a01b0316611fcc8383896001600160a01b0316611934565b611fd6919061288f565b612007565b612007611ff28383896001600160a01b03166120a0565b886001600160a01b0316808204910615150190565b979650505050505050565b5f80856001600160a01b031611612027575f80fd5b5f846001600160801b03161161203b575f80fd5b8161204d57611f1585858560016122a1565b611f448585856001612384565b5f80856001600160a01b03161161206f575f80fd5b5f846001600160801b031611612083575f80fd5b8161209457611f158585855f612384565b611f448585855f6122a1565b5f6120ac848484611934565b905081806120bc576120bc61287b565b838509156119ca57600101806119ca575f80fd5b815f526001600160a01b03811660045260245ffd5b5f8082116120f1575f80fd5b507f0706060506020500060203020504000106050205030304010505030400000000601f6f8421084210842108cc6318c6db6d54be6001600160801b03841160071b84811c67ffffffffffffffff1060061b1784811c63ffffffff1060051b1784811c61ffff1060041b1784811c60ff1060031b1793841c1c161a1790565b5f8082600f0b126121905761218b61073e8585856001611f4f565b611f47565b6121a761073e85856121a186612781565b5f611f4f565b611f4790612747565b5f8082600f0b126121cb5761218b61073e8585856001611ec7565b6121a761073e85856121dc86612781565b5f611ec7565b5f8082600f0b121561224e576001600160801b03831661220183612781565b61220b9085612761565b9150816001600160801b0316106122495760405162461bcd60e51b81526020600482015260026024820152614c5360f01b6044820152606401610489565b611a03565b6001600160801b03831661226283856127ae565b9150816001600160801b03161015611a035760405162461bcd60e51b81526020600482015260026024820152614c4160f01b6044820152606401610489565b5f8115612311575f6001600160a01b038411156122d5576122d084600160601b876001600160801b0316611934565b6122ec565b6122ec6001600160801b038616606086901b61288f565b90506123096123046001600160a01b03881683611b20565b612494565b915050611f47565b5f6001600160a01b0384111561233e5761233984600160601b876001600160801b03166120a0565b61235b565b61235b606085901b6001600160801b038716808204910615150190565b905080866001600160a01b031611612371575f80fd5b612309816001600160a01b0388166127ea565b5f825f03612393575083611f47565b600160601b600160e01b03606085901b16821561243a575f6001600160a01b038716856123c082826128ae565b92506123cc908361288f565b03612405575f6123dc8284612696565b9050828110612403576123f983896001600160a01b0316836120a0565b9350505050611f47565b505b61243182612426876124206001600160a01b038c168461288f565b90611b20565b808204910615150190565b92505050611f47565b5f6001600160a01b0387168561245082826128ae565b925061245c908361288f565b14801561246857508082115b612470575f80fd5b5f61247b82846127ea565b90506123f9612304848a6001600160a01b0316846120a0565b806001600160a01b03811681146124a9575f80fd5b919050565b6001600160a01b03811681146124c2575f80fd5b50565b80151581146124c2575f80fd5b5f8083601f8401126124e2575f80fd5b50813567ffffffffffffffff8111156124f9575f80fd5b602083019150836020828501011115612510575f80fd5b9250929050565b5f805f805f8060a0878903121561252c575f80fd5b8635612537816124ae565b95506020870135612547816124c5565b945060408701359350606087013561255e816124ae565b9250608087013567ffffffffffffffff811115612579575f80fd5b61258589828a016124d2565b979a9699509497509295939492505050565b5f602082840312156125a7575f80fd5b81356119ca816124ae565b80356001600160801b03811681146124a9575f80fd5b5f805f606084860312156125da575f80fd5b83356125e5816124ae565b92506125f3602085016125b2565b9150612601604085016125b2565b90509250925092565b5f6020828403121561261a575f80fd5b6119ca826125b2565b5f805f8060608587031215612636575f80fd5b8435612641816124ae565b935061264f602086016125b2565b9250604085013567ffffffffffffffff81111561266a575f80fd5b612676878288016124d2565b95989497509550505050565b634e487b7160e01b5f52601160045260245ffd5b80820180821115611a0357611a03612682565b8181035f8312801583831316838312821617156126c8576126c8612682565b5092915050565b8082018281125f8312801582168215821617156126ee576126ee612682565b505092915050565b81835281816020850137505f828201602090810191909152601f909101601f19169091010190565b848152836020820152606060408201525f61273d6060830184866126f6565b9695505050505050565b5f600160ff1b820161275b5761275b612682565b505f0390565b6001600160801b038281168282160390808211156126c8576126c8612682565b5f81600f0b6f7fffffffffffffffffffffffffffffff1981036127a6576127a6612682565b5f0392915050565b6001600160801b038181168382160190808211156126c8576126c8612682565b62ffffff8281168282160390808211156126c8576126c8612682565b81810381811115611a0357611a03612682565b5f82515f5b8181101561281c5760208186018101518583015201612802565b505f920191825250919050565b5f60208284031215612839575f80fd5b5051919050565b5f60208284031215612850575f80fd5b81516119ca816124c5565b6001600160a01b038281168282160390808211156126c8576126c8612682565b634e487b7160e01b5f52601260045260245ffd5b5f826128a957634e487b7160e01b5f52601260045260245ffd5b500490565b8082028115828204841417611a0357611a0361268256fea26469706673582212203fa41789cff790d23c04cf815a444afbf5be2cdf3edec38462ee7b99e0923cc764736f6c63430008180033a2646970667358221220cc65af619c66998a21a4e1fa6cf820a06572315bb2df85024b1107d893927db164736f6c63430008180033","linkReferences":{}},"methodIdentifiers":{"createPool(address,address,int24,int24,uint24)":"0c2d4e4e","getPool(address,address,uint32)":"71c54fc9","parameters()":"89035730","pools(address,address,uint256)":"169c4cef"},"id":17}