{"abi":[{"type":"constructor","inputs":[{"name":"_poolManger","type":"address","internalType":"address"}],"stateMutability":"nonpayable"},{"type":"function","name":"approve","inputs":[{"name":"to","type":"address","internalType":"address"},{"name":"tokenId","type":"uint256","internalType":"uint256"}],"outputs":[],"stateMutability":"nonpayable"},{"type":"function","name":"balanceOf","inputs":[{"name":"owner","type":"address","internalType":"address"}],"outputs":[{"name":"","type":"uint256","internalType":"uint256"}],"stateMutability":"view"},{"type":"function","name":"burn","inputs":[{"name":"positionId","type":"uint256","internalType":"uint256"}],"outputs":[{"name":"amount0","type":"uint256","internalType":"uint256"},{"name":"amount1","type":"uint256","internalType":"uint256"}],"stateMutability":"nonpayable"},{"type":"function","name":"collect","inputs":[{"name":"positionId","type":"uint256","internalType":"uint256"},{"name":"recipient","type":"address","internalType":"address"}],"outputs":[{"name":"amount0","type":"uint256","internalType":"uint256"},{"name":"amount1","type":"uint256","internalType":"uint256"}],"stateMutability":"nonpayable"},{"type":"function","name":"getAllPositions","inputs":[],"outputs":[{"name":"positionInfo","type":"tuple[]","internalType":"struct IPositionManager.PositionInfo[]","components":[{"name":"owner","type":"address","internalType":"address"},{"name":"token0","type":"address","internalType":"address"},{"name":"token1","type":"address","internalType":"address"},{"name":"index","type":"uint32","internalType":"uint32"},{"name":"fee","type":"uint24","internalType":"uint24"},{"name":"liquidity","type":"uint128","internalType":"uint128"},{"name":"tickLower","type":"int24","internalType":"int24"},{"name":"tickUpper","type":"int24","internalType":"int24"},{"name":"tokensOwed0","type":"uint128","internalType":"uint128"},{"name":"tokensOwed1","type":"uint128","internalType":"uint128"},{"name":"feeGrowthInside0LastX128","type":"uint256","internalType":"uint256"},{"name":"feeGrowthInside1LastX128","type":"uint256","internalType":"uint256"}]}],"stateMutability":"view"},{"type":"function","name":"getApproved","inputs":[{"name":"tokenId","type":"uint256","internalType":"uint256"}],"outputs":[{"name":"","type":"address","internalType":"address"}],"stateMutability":"view"},{"type":"function","name":"getSender","inputs":[],"outputs":[{"name":"","type":"address","internalType":"address"}],"stateMutability":"view"},{"type":"function","name":"isApprovedForAll","inputs":[{"name":"owner","type":"address","internalType":"address"},{"name":"operator","type":"address","internalType":"address"}],"outputs":[{"name":"","type":"bool","internalType":"bool"}],"stateMutability":"view"},{"type":"function","name":"mint","inputs":[{"name":"params","type":"tuple","internalType":"struct IPositionManager.MintParams","components":[{"name":"token0","type":"address","internalType":"address"},{"name":"token1","type":"address","internalType":"address"},{"name":"index","type":"uint32","internalType":"uint32"},{"name":"amount0Desired","type":"uint256","internalType":"uint256"},{"name":"amount1Desired","type":"uint256","internalType":"uint256"},{"name":"recipient","type":"address","internalType":"address"},{"name":"deadline","type":"uint256","internalType":"uint256"}]}],"outputs":[{"name":"positionId","type":"uint256","internalType":"uint256"},{"name":"liquidity","type":"uint128","internalType":"uint128"},{"name":"amount0","type":"uint256","internalType":"uint256"},{"name":"amount1","type":"uint256","internalType":"uint256"}],"stateMutability":"payable"},{"type":"function","name":"mintCallback","inputs":[{"name":"amount0","type":"uint256","internalType":"uint256"},{"name":"amount1","type":"uint256","internalType":"uint256"},{"name":"data","type":"bytes","internalType":"bytes"}],"outputs":[],"stateMutability":"nonpayable"},{"type":"function","name":"name","inputs":[],"outputs":[{"name":"","type":"string","internalType":"string"}],"stateMutability":"view"},{"type":"function","name":"ownerOf","inputs":[{"name":"tokenId","type":"uint256","internalType":"uint256"}],"outputs":[{"name":"","type":"address","internalType":"address"}],"stateMutability":"view"},{"type":"function","name":"poolManager","inputs":[],"outputs":[{"name":"","type":"address","internalType":"contract IPoolManager"}],"stateMutability":"view"},{"type":"function","name":"positions","inputs":[{"name":"","type":"uint256","internalType":"uint256"}],"outputs":[{"name":"owner","type":"address","internalType":"address"},{"name":"token0","type":"address","internalType":"address"},{"name":"token1","type":"address","internalType":"address"},{"name":"index","type":"uint32","internalType":"uint32"},{"name":"fee","type":"uint24","internalType":"uint24"},{"name":"liquidity","type":"uint128","internalType":"uint128"},{"name":"tickLower","type":"int24","internalType":"int24"},{"name":"tickUpper","type":"int24","internalType":"int24"},{"name":"tokensOwed0","type":"uint128","internalType":"uint128"},{"name":"tokensOwed1","type":"uint128","internalType":"uint128"},{"name":"feeGrowthInside0LastX128","type":"uint256","internalType":"uint256"},{"name":"feeGrowthInside1LastX128","type":"uint256","internalType":"uint256"}],"stateMutability":"view"},{"type":"function","name":"safeTransferFrom","inputs":[{"name":"from","type":"address","internalType":"address"},{"name":"to","type":"address","internalType":"address"},{"name":"tokenId","type":"uint256","internalType":"uint256"}],"outputs":[],"stateMutability":"nonpayable"},{"type":"function","name":"safeTransferFrom","inputs":[{"name":"from","type":"address","internalType":"address"},{"name":"to","type":"address","internalType":"address"},{"name":"tokenId","type":"uint256","internalType":"uint256"},{"name":"data","type":"bytes","internalType":"bytes"}],"outputs":[],"stateMutability":"nonpayable"},{"type":"function","name":"setApprovalForAll","inputs":[{"name":"operator","type":"address","internalType":"address"},{"name":"approved","type":"bool","internalType":"bool"}],"outputs":[],"stateMutability":"nonpayable"},{"type":"function","name":"supportsInterface","inputs":[{"name":"interfaceId","type":"bytes4","internalType":"bytes4"}],"outputs":[{"name":"","type":"bool","internalType":"bool"}],"stateMutability":"view"},{"type":"function","name":"symbol","inputs":[],"outputs":[{"name":"","type":"string","internalType":"string"}],"stateMutability":"view"},{"type":"function","name":"tokenURI","inputs":[{"name":"tokenId","type":"uint256","internalType":"uint256"}],"outputs":[{"name":"","type":"string","internalType":"string"}],"stateMutability":"view"},{"type":"function","name":"transferFrom","inputs":[{"name":"from","type":"address","internalType":"address"},{"name":"to","type":"address","internalType":"address"},{"name":"tokenId","type":"uint256","internalType":"uint256"}],"outputs":[],"stateMutability":"nonpayable"},{"type":"event","name":"Approval","inputs":[{"name":"owner","type":"address","indexed":true,"internalType":"address"},{"name":"approved","type":"address","indexed":true,"internalType":"address"},{"name":"tokenId","type":"uint256","indexed":true,"internalType":"uint256"}],"anonymous":false},{"type":"event","name":"ApprovalForAll","inputs":[{"name":"owner","type":"address","indexed":true,"internalType":"address"},{"name":"operator","type":"address","indexed":true,"internalType":"address"},{"name":"approved","type":"bool","indexed":false,"internalType":"bool"}],"anonymous":false},{"type":"event","name":"Transfer","inputs":[{"name":"from","type":"address","indexed":true,"internalType":"address"},{"name":"to","type":"address","indexed":true,"internalType":"address"},{"name":"tokenId","type":"uint256","indexed":true,"internalType":"uint256"}],"anonymous":false},{"type":"error","name":"ERC721IncorrectOwner","inputs":[{"name":"sender","type":"address","internalType":"address"},{"name":"tokenId","type":"uint256","internalType":"uint256"},{"name":"owner","type":"address","internalType":"address"}]},{"type":"error","name":"ERC721InsufficientApproval","inputs":[{"name":"operator","type":"address","internalType":"address"},{"name":"tokenId","type":"uint256","internalType":"uint256"}]},{"type":"error","name":"ERC721InvalidApprover","inputs":[{"name":"approver","type":"address","internalType":"address"}]},{"type":"error","name":"ERC721InvalidOperator","inputs":[{"name":"operator","type":"address","internalType":"address"}]},{"type":"error","name":"ERC721InvalidOwner","inputs":[{"name":"owner","type":"address","internalType":"address"}]},{"type":"error","name":"ERC721InvalidReceiver","inputs":[{"name":"receiver","type":"address","internalType":"address"}]},{"type":"error","name":"ERC721InvalidSender","inputs":[{"name":"sender","type":"address","internalType":"address"}]},{"type":"error","name":"ERC721NonexistentToken","inputs":[{"name":"tokenId","type":"uint256","internalType":"uint256"}]}],"bytecode":{"object":"0x6080604052600780546001600160b01b031916600117905534801562000023575f80fd5b5060405162002f0238038062002f028339810160408190526200004691620000d4565b6040518060400160405280600f81526020016e2baa2329bbb0b82837b9b4ba34b7b760891b815250604051806040016040528060048152602001630575446560e41b815250815f90816200009b9190620001a1565b506001620000aa8282620001a1565b5050600680546001600160a01b0319166001600160a01b039390931692909217909155506200026d565b5f60208284031215620000e5575f80fd5b81516001600160a01b0381168114620000fc575f80fd5b9392505050565b634e487b7160e01b5f52604160045260245ffd5b600181811c908216806200012c57607f821691505b6020821081036200014b57634e487b7160e01b5f52602260045260245ffd5b50919050565b601f8211156200019c57805f5260205f20601f840160051c81016020851015620001785750805b601f840160051c820191505b8181101562000199575f815560010162000184565b50505b505050565b81516001600160401b03811115620001bd57620001bd62000103565b620001d581620001ce845462000117565b8462000151565b602080601f8311600181146200020b575f8415620001f35750858301515b5f19600386901b1c1916600185901b17855562000265565b5f85815260208120601f198616915b828110156200023b578886015182559484019460019091019084016200021a565b50858210156200025957878501515f19600388901b60f8161c191681555b505060018460011b0185555b505050505050565b612c87806200027b5f395ff3fe608060405260043610610126575f3560e01c80636352211e116100a85780639f382e9b1161006d5780639f382e9b146103f9578063a22cb46514610418578063b88d4fde14610437578063c87b56dd14610456578063dc4c90d314610475578063e985e9c514610494575f80fd5b80636352211e146102b757806370a08231146102d65780638d3c100a1461030357806395d89b411461032257806399fbab8814610336575f80fd5b806323b872dd116100ee57806323b872dd146101f85780632c6cc6c71461021757806342842e0e1461025257806342966c68146102715780635e01eb5a146102a5575f80fd5b806301ffc9a71461012a57806306fdde031461015e578063081812fc1461017f578063095ea7b3146101b657806318f56a0a146101d7575b5f80fd5b348015610135575f80fd5b506101496101443660046123b1565b6104b3565b60405190151581526020015b60405180910390f35b348015610169575f80fd5b50610172610504565b6040516101559190612419565b34801561018a575f80fd5b5061019e61019936600461242b565b610593565b6040516001600160a01b039091168152602001610155565b3480156101c1575f80fd5b506101d56101d0366004612456565b6105ba565b005b3480156101e2575f80fd5b506101eb6105c9565b6040516101559190612480565b348015610203575f80fd5b506101d5610212366004612585565b6107dd565b61022a6102253660046125c3565b61086b565b604080519485526001600160801b039093166020850152918301526060820152608001610155565b34801561025d575f80fd5b506101d561026c366004612585565b611019565b34801561027c575f80fd5b5061029061028b36600461242b565b611038565b60408051928352602083019190915201610155565b3480156102b0575f80fd5b503361019e565b3480156102c2575f80fd5b5061019e6102d136600461242b565b611332565b3480156102e1575f80fd5b506102f56102f03660046125d9565b61133c565b604051908152602001610155565b34801561030e575f80fd5b5061029061031d3660046125f4565b611381565b34801561032d575f80fd5b50610172611534565b348015610341575f80fd5b506103e161035036600461242b565b60086020525f90815260409020805460018201546002808401546003850154600486015460058701546006909701546001600160a01b039687169795871696841695600160a01b850463ffffffff1695600160c01b90950462ffffff16946001600160801b0380861695600160801b808204840b96600160981b90920490930b94828216949390910490911691908c565b6040516101559c9b9a99989796959493929190612622565b348015610404575f80fd5b506101d56104133660046126c3565b611543565b348015610423575f80fd5b506101d5610432366004612749565b611734565b348015610442575f80fd5b506101d5610451366004612789565b61173f565b348015610461575f80fd5b5061017261047036600461242b565b611757565b348015610480575f80fd5b5060065461019e906001600160a01b031681565b34801561049f575f80fd5b506101496104ae366004612862565b6117c8565b5f6001600160e01b031982166380ac58cd60e01b14806104e357506001600160e01b03198216635b5e139f60e01b145b806104fe57506301ffc9a760e01b6001600160e01b03198316145b92915050565b60605f80546105129061288e565b80601f016020809104026020016040519081016040528092919081815260200182805461053e9061288e565b80156105895780601f1061056057610100808354040283529160200191610589565b820191905f5260205f20905b81548152906001019060200180831161056c57829003601f168201915b5050505050905090565b5f61059d826117f5565b505f828152600460205260409020546001600160a01b03166104fe565b6105c582823361182d565b5050565b6007546060906105e4906001906001600160b01b03166128d4565b6001600160b01b031667ffffffffffffffff81111561060557610605612775565b60405190808252806020026020018201604052801561069257816020015b60408051610180810182525f8082526020808301829052928201819052606082018190526080820181905260a0820181905260c0820181905260e0820181905261010082018190526101208201819052610140820181905261016082015282525f199092019101816106235790505b5090505f5b6007546106af906001906001600160b01b03166128d4565b6001600160b01b03168163ffffffff1610156107d95760085f6106d38360016128fb565b63ffffffff908116825260208083019390935260409182015f2082516101808101845281546001600160a01b039081168252600183015481169582019590955260028083015495861694820194909452600160a01b850483166060820152600160c01b90940462ffffff16608085015260038101546001600160801b0380821660a0870152600160801b808304860b60c0880152600160981b90920490940b60e086015260048201548085166101008701520490921661012084015260058201546101408401526006909101546101608301528351849184169081106107bb576107bb612918565b602002602001018190525080806107d19061292c565b915050610697565b5090565b6001600160a01b03821661080b57604051633250574960e11b81525f60048201526024015b60405180910390fd5b5f61081783833361183a565b9050836001600160a01b0316816001600160a01b031614610865576040516364283d7b60e01b81526001600160a01b0380861660048301526024820184905282166044820152606401610802565b50505050565b5f80808060c0850135804211156108ba5760405162461bcd60e51b8152602060048201526013602482015272151c985b9cd858dd1a5bdb881d1bdbc81bdb19606a1b6044820152606401610802565b6006545f906001600160a01b03166371c54fc96108da60208a018a6125d9565b6108ea60408b0160208c016125d9565b6108fa60608c0160408d01612961565b6040518463ffffffff1660e01b81526004016109189392919061297a565b602060405180830381865afa158015610933573d5f803e3d5ffd5b505050506040513d601f19601f8201168201806040525081019061095791906129a3565b90505f8190505f816001600160a01b0316638db791d26040518163ffffffff1660e01b8152600401602060405180830381865afa15801561099a573d5f803e3d5ffd5b505050506040513d601f19601f820116820180604052508101906109be91906129a3565b90505f610a29836001600160a01b03166359c4f9056040518163ffffffff1660e01b8152600401602060405180830381865afa158015610a00573d5f803e3d5ffd5b505050506040513d601f19601f82011682018060405250810190610a2491906129be565b61192c565b90505f610a6b846001600160a01b03166355b812a86040518163ffffffff1660e01b8152600401602060405180830381865afa158015610a00573d5f803e3d5ffd5b9050610a828383838e606001358f60800135611be4565b98505f610a9260208d018d6125d9565b610aa260408e0160208f016125d9565b8d6040016020810190610ab59190612961565b604080516001600160a01b039485166020820152939092169183019190915263ffffffff16606082015233608082015260a00160408051601f19818403018152908290526392f026ad60e01b825291506001600160a01b038616906392f026ad90610b289030908e9086906004016129de565b60408051808303815f875af1158015610b43573d5f803e3d5ffd5b505050506040513d601f19601f82011682018060405250810190610b679190612a10565b9099509750610bcc610b7f60c08e0160a08f016125d9565b600780546001600160b01b0316905f610b9783612a32565b91906101000a8154816001600160b01b0302191690836001600160b01b031602179055506001600160b01b03169c508c611ca5565b6040516316c1973960e01b81523060048201525f9081906001600160a01b038816906316c197399060240160a060405180830381865afa158015610c12573d5f803e3d5ffd5b505050506040513d601f19601f82011682018060405250810190610c369190612a6b565b505092509250506040518061018001604052808f60a0016020810190610c5c91906125d9565b6001600160a01b031681526020018f5f016020810190610c7c91906125d9565b6001600160a01b031681526020018f6020016020810190610c9d91906125d9565b6001600160a01b031681526020018f6040016020810190610cbe9190612961565b63ffffffff168152602001886001600160a01b031663ddca3f436040518163ffffffff1660e01b8152600401602060405180830381865afa158015610d05573d5f803e3d5ffd5b505050506040513d601f19601f82011682018060405250810190610d299190612abe565b62ffffff1681526020018d6001600160801b03168152602001886001600160a01b03166359c4f9056040518163ffffffff1660e01b8152600401602060405180830381865afa158015610d7e573d5f803e3d5ffd5b505050506040513d601f19601f82011682018060405250810190610da291906129be565b60020b8152602001886001600160a01b03166355b812a86040518163ffffffff1660e01b8152600401602060405180830381865afa158015610de6573d5f803e3d5ffd5b505050506040513d601f19601f82011682018060405250810190610e0a91906129be565b60020b81526020015f6001600160801b031681526020015f6001600160801b031681526020018381526020018281525060085f8f81526020019081526020015f205f820151815f015f6101000a8154816001600160a01b0302191690836001600160a01b031602179055506020820151816001015f6101000a8154816001600160a01b0302191690836001600160a01b031602179055506040820151816002015f6101000a8154816001600160a01b0302191690836001600160a01b0316021790555060608201518160020160146101000a81548163ffffffff021916908363ffffffff16021790555060808201518160020160186101000a81548162ffffff021916908362ffffff16021790555060a0820151816003015f6101000a8154816001600160801b0302191690836001600160801b0316021790555060c08201518160030160106101000a81548162ffffff021916908360020b62ffffff16021790555060e08201518160030160136101000a81548162ffffff021916908360020b62ffffff160217905550610100820151816004015f6101000a8154816001600160801b0302191690836001600160801b031602179055506101208201518160040160106101000a8154816001600160801b0302191690836001600160801b03160217905550610140820151816005015561016082015181600601559050505050505050505050509193509193565b61103383838360405180602001604052805f81525061173f565b505050565b5f80825f61104582611332565b9050611052813384611d06565b61108d5760405162461bcd60e51b815260206004820152600c60248201526b139bdd08185c1c1c9bdd995960a21b6044820152606401610802565b5f8581526008602052604080822060038101546006546001830154600284015494516371c54fc960e01b815293956001600160801b039093169492936001600160a01b03928316936371c54fc9936110fc9381169290821691600160a01b900463ffffffff169060040161297a565b602060405180830381865afa158015611117573d5f803e3d5ffd5b505050506040513d601f19601f8201168201806040525081019061113b91906129a3565b6040516390bc169360e01b81526001600160801b038416600482015290915081906001600160a01b038216906390bc16939060240160408051808303815f875af115801561118b573d5f803e3d5ffd5b505050506040513d601f19601f820116820180604052508101906111af9190612a10565b6040516316c1973960e01b815230600482015291995097505f9081906001600160a01b038416906316c197399060240160a060405180830381865afa1580156111fa573d5f803e3d5ffd5b505050506040513d601f19601f8201168201806040525081019061121e9190612a6b565b505092509250506112508660050154836112389190612ae0565b60038801546001600160801b0316600160801b611d6a565b61125a908b612af3565b6004870180545f906112769084906001600160801b0316612af3565b92506101000a8154816001600160801b0302191690836001600160801b031602179055506112ad8660060154826112389190612ae0565b6112b7908a612af3565b6004870180546010906112db908490600160801b90046001600160801b0316612af3565b82546001600160801b039182166101009390930a9283029190920219909116179055506005860191909155600685015550505060030180546fffffffffffffffffffffffffffffffff191690555091939092509050565b5f6104fe826117f5565b5f6001600160a01b038216611366576040516322718ad960e21b81525f6004820152602401610802565b506001600160a01b03165f9081526003602052604090205490565b5f80835f61138e82611332565b905061139b813384611d06565b6113d65760405162461bcd60e51b815260206004820152600c60248201526b139bdd08185c1c1c9bdd995960a21b6044820152606401610802565b5f868152600860205260408082206006546001820154600283015493516371c54fc960e01b81529294936001600160a01b03928316936371c54fc9936114349381169290811691600160a01b90910463ffffffff169060040161297a565b602060405180830381865afa15801561144f573d5f803e3d5ffd5b505050506040513d601f19601f8201168201806040525081019061147391906129a3565b6004838101546040516360d49d5360e01b81526001600160a01b038b8116938201939093526001600160801b038083166024830152600160801b90920490911660448201529192508291908216906360d49d539060640160408051808303815f875af11580156114e5573d5f803e3d5ffd5b505050506040513d601f19601f820116820180604052508101906115099190612b13565b5f60048601556001600160801b03918216985016955061152889611e06565b50505050509250929050565b6060600180546105129061288e565b5f80808061155385870187612b44565b6006546040516371c54fc960e01b815294985092965090945092505f916001600160a01b03909116906371c54fc9906115949088908890889060040161297a565b602060405180830381865afa1580156115af573d5f803e3d5ffd5b505050506040513d601f19601f820116820180604052508101906115d391906129a3565b90506001600160a01b038116331461162d5760405162461bcd60e51b815260206004820152601760248201527f496e76616c69642063616c6c6261636b2063616c6c65720000000000000000006044820152606401610802565b88156116ab576040516323b872dd60e01b81526001600160a01b038381166004830152336024830152604482018b90528616906323b872dd906064016020604051808303815f875af1158015611685573d5f803e3d5ffd5b505050506040513d601f19601f820116820180604052508101906116a99190612b9b565b505b8715611729576040516323b872dd60e01b81526001600160a01b038381166004830152336024830152604482018a90528516906323b872dd906064016020604051808303815f875af1158015611703573d5f803e3d5ffd5b505050506040513d601f19601f820116820180604052508101906117279190612b9b565b505b505050505050505050565b6105c5338383611e3e565b61174a8484846107dd565b6108653385858585611edc565b6060611762826117f5565b505f61177860408051602081019091525f815290565b90505f8151116117965760405180602001604052805f8152506117c1565b806117a084612004565b6040516020016117b1929190612bb6565b6040516020818303038152906040525b9392505050565b6001600160a01b039182165f90815260056020908152604080832093909416825291909152205460ff1690565b5f818152600260205260408120546001600160a01b0316806104fe57604051637e27328960e01b815260048101849052602401610802565b6110338383836001612094565b5f828152600260205260408120546001600160a01b039081169083161561186657611866818486612198565b6001600160a01b038116156118a0576118815f855f80612094565b6001600160a01b0381165f90815260036020526040902080545f190190555b6001600160a01b038516156118ce576001600160a01b0385165f908152600360205260409020805460010190555b5f8481526002602052604080822080546001600160a01b0319166001600160a01b0389811691821790925591518793918516917fddf252ad1be2c89b69c2b068fc378daa952ba7f163c4a11628f55a4df523b3ef91a4949350505050565b60020b5f60ff82901d80830118620d89e8811115611955576119556345c3193d60e11b846121fc565b7001fffcb933bd6fad37aa2d162d1a5940016001821602600160801b186002821615611991576ffff97272373d413259a46990580e213a0260801c5b60048216156119b0576ffff2e50f5f656932ef12357cf3c7fdcc0260801c5b60088216156119cf576fffe5caca7e10e4e61c3624eaa0941cd00260801c5b60108216156119ee576fffcb9843d60f6159c9db58835c9266440260801c5b6020821615611a0d576fff973b41fa98c081472e6896dfb254c00260801c5b6040821615611a2c576fff2ea16466c96a3843ec78b326b528610260801c5b6080821615611a4b576ffe5dee046a99a2a811c461f1969c30530260801c5b610100821615611a6b576ffcbe86c7900a88aedcffc83b479aa3a40260801c5b610200821615611a8b576ff987a7253ac413176f2b074cf7815e540260801c5b610400821615611aab576ff3392b0822b70005940c7a398e4b70f30260801c5b610800821615611acb576fe7159475a2c29b7443b29c7fa6e889d90260801c5b611000821615611aeb576fd097f3bdfd2022b8845ad8f792aa58250260801c5b612000821615611b0b576fa9f746462d870fdf8a65dc1f90e061e50260801c5b614000821615611b2b576f70d869a156d2a1b890bb3df62baf32f70260801c5b618000821615611b4b576f31be135f97d08fd981231505542fcfa60260801c5b62010000821615611b6c576f09aa508b5b7a84e1c677de54f3e99bc90260801c5b62020000821615611b8c576e5d6af8dedb81196699c329225ee6040260801c5b62040000821615611bab576d2216e584f5fa1ea926041bedfe980260801c5b62080000821615611bc8576b048a170391f7dc42444e8fa20260801c5b5f841315611bd4575f19045b63ffffffff0160201c9392505050565b5f836001600160a01b0316856001600160a01b03161115611c03579293925b846001600160a01b0316866001600160a01b031611611c2e57611c2785858561220b565b9050611c9c565b836001600160a01b0316866001600160a01b03161015611c8e575f611c5487868661220b565b90505f611c62878986612273565b9050806001600160801b0316826001600160801b031610611c835780611c85565b815b92505050611c9c565b611c99858584612273565b90505b95945050505050565b6001600160a01b038216611cce57604051633250574960e11b81525f6004820152602401610802565b5f611cda83835f61183a565b90506001600160a01b03811615611033576040516339e3563760e11b81525f6004820152602401610802565b5f6001600160a01b03831615801590611d625750826001600160a01b0316846001600160a01b03161480611d3f5750611d3f84846117c8565b80611d6257505f828152600460205260409020546001600160a01b038481169116145b949350505050565b5f838302815f1985870982811083820303915050808411611d89575f80fd5b805f03611d9b575082900490506117c1565b5f848688095f868103871696879004966002600389028118808a02820302808a02820302808a02820302808a02820302808a02820302808a02909103029181900381900460010186841190950394909402919094039290920491909117919091029150509392505050565b5f611e125f835f61183a565b90506001600160a01b0381166105c557604051637e27328960e01b815260048101839052602401610802565b6001600160a01b038216611e7057604051630b61174360e31b81526001600160a01b0383166004820152602401610802565b6001600160a01b038381165f81815260056020908152604080832094871680845294825291829020805460ff191686151590811790915591519182527f17307eab39ab6107e8899845ad3d59bd9653f200f220920489ca2b5937696c31910160405180910390a3505050565b6001600160a01b0383163b15611ffd57604051630a85bd0160e11b81526001600160a01b0384169063150b7a0290611f1e908890889087908790600401612be4565b6020604051808303815f875af1925050508015611f58575060408051601f3d908101601f19168201909252611f5591810190612c16565b60015b611fbf573d808015611f85576040519150601f19603f3d011682016040523d82523d5f602084013e611f8a565b606091505b5080515f03611fb757604051633250574960e11b81526001600160a01b0385166004820152602401610802565b805181602001fd5b6001600160e01b03198116630a85bd0160e11b14611ffb57604051633250574960e11b81526001600160a01b0385166004820152602401610802565b505b5050505050565b60605f612010836122a8565b60010190505f8167ffffffffffffffff81111561202f5761202f612775565b6040519080825280601f01601f191660200182016040528015612059576020820181803683370190505b5090508181016020015b5f19016f181899199a1a9b1b9c1cb0b131b232b360811b600a86061a8153600a850494508461206357509392505050565b80806120a857506001600160a01b03821615155b15612169575f6120b7846117f5565b90506001600160a01b038316158015906120e35750826001600160a01b0316816001600160a01b031614155b80156120f657506120f481846117c8565b155b1561211f5760405163a9fbf51f60e01b81526001600160a01b0384166004820152602401610802565b81156121675783856001600160a01b0316826001600160a01b03167f8c5be1e5ebec7d5bd14f71427d1e84f3dd0314c0f7b2291e5b200ac8c7c3b92560405160405180910390a45b505b50505f90815260046020526040902080546001600160a01b0319166001600160a01b0392909216919091179055565b6121a3838383611d06565b611033576001600160a01b0383166121d157604051637e27328960e01b815260048101829052602401610802565b60405163177e802f60e01b81526001600160a01b038316600482015260248101829052604401610802565b815f528060020b60045260245ffd5b5f826001600160a01b0316846001600160a01b0316111561222a579192915b5f61224c856001600160a01b0316856001600160a01b0316600160601b611d6a565b9050611c9c61226e84836122608989612c31565b6001600160a01b0316611d6a565b61237f565b5f826001600160a01b0316846001600160a01b03161115612292579192915b611d6261226e83600160601b6122608888612c31565b5f8072184f03e93ff9f4daa797ed6e38ed64bf6a1f0160401b83106122e65772184f03e93ff9f4daa797ed6e38ed64bf6a1f0160401b830492506040015b6d04ee2d6d415b85acef81000000008310612312576d04ee2d6d415b85acef8100000000830492506020015b662386f26fc10000831061233057662386f26fc10000830492506010015b6305f5e1008310612348576305f5e100830492506008015b612710831061235c57612710830492506004015b6064831061236e576064830492506002015b600a83106104fe5760010192915050565b806001600160801b0381168114612394575f80fd5b919050565b6001600160e01b0319811681146123ae575f80fd5b50565b5f602082840312156123c1575f80fd5b81356117c181612399565b5f5b838110156123e65781810151838201526020016123ce565b50505f910152565b5f81518084526124058160208601602086016123cc565b601f01601f19169290920160200192915050565b602081525f6117c160208301846123ee565b5f6020828403121561243b575f80fd5b5035919050565b6001600160a01b03811681146123ae575f80fd5b5f8060408385031215612467575f80fd5b823561247281612442565b946020939093013593505050565b602080825282518282018190525f919060409081850190868401855b8281101561257857815180516001600160a01b0390811686528782015181168887015286820151168686015260608082015163ffffffff169086015260808082015162ffffff169086015260a0808201516001600160801b03169086015260c080820151600281900b82880152505060e08082015161251f8288018260020b9052565b5050610100818101516001600160801b038116878301525050610120818101516001600160801b03811687830152505061014081810151908601526101609081015190850152610180909301929085019060010161249c565b5091979650505050505050565b5f805f60608486031215612597575f80fd5b83356125a281612442565b925060208401356125b281612442565b929592945050506040919091013590565b5f60e082840312156125d3575f80fd5b50919050565b5f602082840312156125e9575f80fd5b81356117c181612442565b5f8060408385031215612605575f80fd5b82359150602083013561261781612442565b809150509250929050565b6001600160a01b038d811682528c811660208301528b16604082015263ffffffff8a16606082015262ffffff891660808201526001600160801b03881660a0820152610180810161267860c083018960020b9052565b61268760e083018860020b9052565b6001600160801b0386166101008301526001600160801b03851661012083015261014082019390935261016001529a9950505050505050505050565b5f805f80606085870312156126d6575f80fd5b8435935060208501359250604085013567ffffffffffffffff808211156126fb575f80fd5b818701915087601f83011261270e575f80fd5b81358181111561271c575f80fd5b88602082850101111561272d575f80fd5b95989497505060200194505050565b80151581146123ae575f80fd5b5f806040838503121561275a575f80fd5b823561276581612442565b915060208301356126178161273c565b634e487b7160e01b5f52604160045260245ffd5b5f805f806080858703121561279c575f80fd5b84356127a781612442565b935060208501356127b781612442565b925060408501359150606085013567ffffffffffffffff808211156127da575f80fd5b818701915087601f8301126127ed575f80fd5b8135818111156127ff576127ff612775565b604051601f8201601f19908116603f0116810190838211818310171561282757612827612775565b816040528281528a602084870101111561283f575f80fd5b826020860160208301375f60208483010152809550505050505092959194509250565b5f8060408385031215612873575f80fd5b823561287e81612442565b9150602083013561261781612442565b600181811c908216806128a257607f821691505b6020821081036125d357634e487b7160e01b5f52602260045260245ffd5b634e487b7160e01b5f52601160045260245ffd5b6001600160b01b038281168282160390808211156128f4576128f46128c0565b5092915050565b63ffffffff8181168382160190808211156128f4576128f46128c0565b634e487b7160e01b5f52603260045260245ffd5b5f63ffffffff808316818103612944576129446128c0565b6001019392505050565b803563ffffffff81168114612394575f80fd5b5f60208284031215612971575f80fd5b6117c18261294e565b6001600160a01b03938416815291909216602082015263ffffffff909116604082015260600190565b5f602082840312156129b3575f80fd5b81516117c181612442565b5f602082840312156129ce575f80fd5b81518060020b81146117c1575f80fd5b6001600160a01b03841681526001600160801b03831660208201526060604082018190525f90611c9c908301846123ee565b5f8060408385031215612a21575f80fd5b505080516020909101519092909150565b5f6001600160b01b038281166002600160b01b03198101612944576129446128c0565b80516001600160801b0381168114612394575f80fd5b5f805f805f60a08688031215612a7f575f80fd5b612a8886612a55565b94506020860151935060408601519250612aa460608701612a55565b9150612ab260808701612a55565b90509295509295909350565b5f60208284031215612ace575f80fd5b815162ffffff811681146117c1575f80fd5b818103818111156104fe576104fe6128c0565b6001600160801b038181168382160190808211156128f4576128f46128c0565b5f8060408385031215612b24575f80fd5b612b2d83612a55565b9150612b3b60208401612a55565b90509250929050565b5f805f8060808587031215612b57575f80fd5b8435612b6281612442565b93506020850135612b7281612442565b9250612b806040860161294e565b91506060850135612b9081612442565b939692955090935050565b5f60208284031215612bab575f80fd5b81516117c18161273c565b5f8351612bc78184602088016123cc565b835190830190612bdb8183602088016123cc565b01949350505050565b6001600160a01b03858116825284166020820152604081018390526080606082018190525f90611c99908301846123ee565b5f60208284031215612c26575f80fd5b81516117c181612399565b6001600160a01b038281168282160390808211156128f4576128f46128c056fea2646970667358221220a8f208b0a53f46fb3eacc14c224d20d0d123ee084a269e01dfdd3cbe7556908964736f6c63430008180033","linkReferences":{}},"methodIdentifiers":{"approve(address,uint256)":"095ea7b3","balanceOf(address)":"70a08231","burn(uint256)":"42966c68","collect(uint256,address)":"8d3c100a","getAllPositions()":"18f56a0a","getApproved(uint256)":"081812fc","getSender()":"5e01eb5a","isApprovedForAll(address,address)":"e985e9c5","mint((address,address,uint32,uint256,uint256,address,uint256))":"2c6cc6c7","mintCallback(uint256,uint256,bytes)":"9f382e9b","name()":"06fdde03","ownerOf(uint256)":"6352211e","poolManager()":"dc4c90d3","positions(uint256)":"99fbab88","safeTransferFrom(address,address,uint256)":"42842e0e","safeTransferFrom(address,address,uint256,bytes)":"b88d4fde","setApprovalForAll(address,bool)":"a22cb465","supportsInterface(bytes4)":"01ffc9a7","symbol()":"95d89b41","tokenURI(uint256)":"c87b56dd","transferFrom(address,address,uint256)":"23b872dd"},"id":23}