{"abi":[{"type":"constructor","inputs":[{"name":"_poolManager","type":"address","internalType":"address"}],"stateMutability":"nonpayable"},{"type":"function","name":"exactInput","inputs":[{"name":"params","type":"tuple","internalType":"struct ISwapRouter.ExactInputParams","components":[{"name":"tokenIn","type":"address","internalType":"address"},{"name":"tokenOut","type":"address","internalType":"address"},{"name":"indexPath","type":"uint32[]","internalType":"uint32[]"},{"name":"recipient","type":"address","internalType":"address"},{"name":"deadline","type":"uint256","internalType":"uint256"},{"name":"amountIn","type":"uint256","internalType":"uint256"},{"name":"amountOutMinimum","type":"uint256","internalType":"uint256"},{"name":"sqrtPriceLimitX96","type":"uint160","internalType":"uint160"}]}],"outputs":[{"name":"amountOut","type":"uint256","internalType":"uint256"}],"stateMutability":"payable"},{"type":"function","name":"exactOutput","inputs":[{"name":"params","type":"tuple","internalType":"struct ISwapRouter.ExactOutputParams","components":[{"name":"tokenIn","type":"address","internalType":"address"},{"name":"tokenOut","type":"address","internalType":"address"},{"name":"indexPath","type":"uint32[]","internalType":"uint32[]"},{"name":"recipient","type":"address","internalType":"address"},{"name":"deadline","type":"uint256","internalType":"uint256"},{"name":"amountOut","type":"uint256","internalType":"uint256"},{"name":"amountInMaximum","type":"uint256","internalType":"uint256"},{"name":"sqrtPriceLimitX96","type":"uint160","internalType":"uint160"}]}],"outputs":[{"name":"amountIn","type":"uint256","internalType":"uint256"}],"stateMutability":"payable"},{"type":"function","name":"poolManager","inputs":[],"outputs":[{"name":"","type":"address","internalType":"contract IPoolManager"}],"stateMutability":"view"},{"type":"function","name":"quoteExactInput","inputs":[{"name":"params","type":"tuple","internalType":"struct ISwapRouter.QuoteExactInputParams","components":[{"name":"tokenIn","type":"address","internalType":"address"},{"name":"tokenOut","type":"address","internalType":"address"},{"name":"indexPath","type":"uint32[]","internalType":"uint32[]"},{"name":"amountIn","type":"uint256","internalType":"uint256"},{"name":"sqrtPriceLimitX96","type":"uint160","internalType":"uint160"}]}],"outputs":[{"name":"amountOut","type":"uint256","internalType":"uint256"}],"stateMutability":"nonpayable"},{"type":"function","name":"quoteExactOutput","inputs":[{"name":"params","type":"tuple","internalType":"struct ISwapRouter.QuoteExactOutputParams","components":[{"name":"tokenIn","type":"address","internalType":"address"},{"name":"tokenOut","type":"address","internalType":"address"},{"name":"indexPath","type":"uint32[]","internalType":"uint32[]"},{"name":"amountOut","type":"uint256","internalType":"uint256"},{"name":"sqrtPriceLimitX96","type":"uint160","internalType":"uint160"}]}],"outputs":[{"name":"amountIn","type":"uint256","internalType":"uint256"}],"stateMutability":"nonpayable"},{"type":"function","name":"swapCallback","inputs":[{"name":"amount0Delta","type":"int256","internalType":"int256"},{"name":"amount1Delta","type":"int256","internalType":"int256"},{"name":"data","type":"bytes","internalType":"bytes"}],"outputs":[],"stateMutability":"nonpayable"},{"type":"function","name":"swapInPool","inputs":[{"name":"pool","type":"address","internalType":"contract IPool"},{"name":"recipient","type":"address","internalType":"address"},{"name":"zeroForOne","type":"bool","internalType":"bool"},{"name":"amountSpecified","type":"int256","internalType":"int256"},{"name":"sqrtPriceLimitX96","type":"uint160","internalType":"uint160"},{"name":"data","type":"bytes","internalType":"bytes"}],"outputs":[{"name":"amount0","type":"int256","internalType":"int256"},{"name":"amount1","type":"int256","internalType":"int256"}],"stateMutability":"nonpayable"},{"type":"event","name":"Swap","inputs":[{"name":"sender","type":"address","indexed":true,"internalType":"address"},{"name":"zeroForOne","type":"bool","indexed":false,"internalType":"bool"},{"name":"amountIn","type":"uint256","indexed":false,"internalType":"uint256"},{"name":"amountInRemaining","type":"uint256","indexed":false,"internalType":"uint256"},{"name":"amountOut","type":"uint256","indexed":false,"internalType":"uint256"}],"anonymous":false}],"bytecode":{"object":"0x608060405234801561000f575f80fd5b506040516114be3803806114be83398101604081905261002e91610052565b5f80546001600160a01b0319166001600160a01b039290921691909117905561007f565b5f60208284031215610062575f80fd5b81516001600160a01b0381168114610078575f80fd5b9392505050565b6114328061008c5f395ff3fe60806040526004361061006e575f3560e01c8063a8a590fd1161004c578063a8a590fd146100eb578063ae5ab5e1146100fe578063dc4c90d31461011d578063fa483e7214610153575f80fd5b80633439aade14610072578063393dd1da146100a45780636c207ad0146100d8575b5f80fd5b34801561007d575f80fd5b5061009161008c366004610da7565b610174565b6040519081526020015b60405180910390f35b3480156100af575f80fd5b506100c36100be366004610e4a565b6102ac565b6040805192835260208301919091520161009b565b6100916100e6366004610eed565b610375565b6100916100f9366004610eed565b610724565b348015610109575f80fd5b50610091610118366004610da7565b610a80565b348015610128575f80fd5b505f5461013b906001600160a01b031681565b6040516001600160a01b03909116815260200161009b565b34801561015e575f80fd5b5061017261016d366004610f1f565b610b4b565b005b6040805161010081019091525f903090636c207ad090806101986020870187610f6e565b6001600160a01b031681526020018560200160208101906101b99190610f6e565b6001600160a01b031681526020016101d46040870187610f90565b808060200260200160405190810160405280939291908181526020018383602002808284375f920182905250938552505050602082015260400161021a42610e10610fea565b815260608087013560208301525f60408301520161023e60a0870160808801610f6e565b6001600160a01b03168152506040518263ffffffff1660e01b815260040161026691906110c5565b6020604051808303815f875af1158015610282573d5f803e3d5ffd5b505050506040513d601f19601f820116820180604052508101906102a691906110d7565b92915050565b5f80886001600160a01b031663128acb088989898989896040518763ffffffff1660e01b81526004016102e4969594939291906110ee565b60408051808303815f875af192505050801561031d575060408051601f3d908101601f1916820190925261031a91810190611149565b60015b610363573d80801561034a576040519150601f19603f3d011682016040523d82523d5f602084013e61034f565b606091505b5061035981610cf1565b9250925050610369565b90925090505b97509795505050505050565b5f60a08201358161038c6040850160208601610f6e565b6001600160a01b03166103a26020860186610f6e565b6001600160a01b03161090505f5b6103bd6040860186610f90565b9050811015610685575f80546001600160a01b03166371c54fc96103e46020890189610f6e565b6103f460408a0160208b01610f6e565b61040160408b018b610f90565b878181106104115761041161116b565b90506020020160208101906104269190611197565b6040518463ffffffff1660e01b8152600401610444939291906111b0565b602060405180830381865afa15801561045f573d5f803e3d5ffd5b505050506040513d601f19601f8201168201806040525081019061048391906111d9565b90506001600160a01b0381166104d15760405162461bcd60e51b815260206004820152600e60248201526d141bdbdb081b9bdd08199bdd5b9960921b60448201526064015b60405180910390fd5b805f6104e06020890189610f6e565b6104f060408a0160208b01610f6e565b6104fd60408b018b610f90565b8781811061050d5761050d61116b565b90506020020160208101906105229190611197565b5f61053360808d0160608e01610f6e565b6001600160a01b0316146105475733610549565b5f5b604080516001600160a01b0395861660208201529385169084015263ffffffff909116606083015291909116608082015260a00160408051601f1981840301815291905290505f803063393dd1da856105a860808e0160608f01610f6e565b8a8c8f60e00160208101906105bd9190610f6e565b896040518763ffffffff1660e01b81526004016105df96959493929190611241565b60408051808303815f875af11580156105fa573d5f803e3d5ffd5b505050506040513d601f19601f8201168201806040525081019061061e9190611149565b915091508661062d578061062f565b815b610639908961128f565b97508661064e57610649826112a2565b610657565b610657816112a2565b610661908a610fea565b9850875f03610674575050505050610685565b5050600190930192506103b0915050565b508360c001358310156106ce5760405162461bcd60e51b815260206004820152601160248201527014db1a5c1c1859d948195e18d959591959607a1b60448201526064016104c8565b60408051821515815260a086013560208201529081018390526060810184905233907f176648f1f11cda284c124490086be42a926ddf0ae887ebe7b1d6b337d89427569060800160405180910390a25050919050565b5f60a08201358161073b6040850160208601610f6e565b6001600160a01b03166107516020860186610f6e565b6001600160a01b03161090505f5b61076c6040860186610f90565b9050811015610a37575f80546001600160a01b03166371c54fc96107936020890189610f6e565b6107a360408a0160208b01610f6e565b6107b060408b018b610f90565b878181106107c0576107c061116b565b90506020020160208101906107d59190611197565b6040518463ffffffff1660e01b81526004016107f3939291906111b0565b602060405180830381865afa15801561080e573d5f803e3d5ffd5b505050506040513d601f19601f8201168201806040525081019061083291906111d9565b90506001600160a01b03811661087b5760405162461bcd60e51b815260206004820152600e60248201526d141bdbdb081b9bdd08199bdd5b9960921b60448201526064016104c8565b805f61088a6020890189610f6e565b61089a60408a0160208b01610f6e565b6108a760408b018b610f90565b878181106108b7576108b761116b565b90506020020160208101906108cc9190611197565b5f6108dd60808d0160608e01610f6e565b6001600160a01b0316146108f157336108f3565b5f5b604080516001600160a01b0395861660208201529385169084015263ffffffff909116606083015291909116608082015260a00160408051601f1981840301815291905290505f803063393dd1da8561095260808e0160608f01610f6e565b8a61095c8d6112a2565b8f60e001602081019061096f9190610f6e565b896040518763ffffffff1660e01b815260040161099196959493929190611241565b60408051808303815f875af11580156109ac573d5f803e3d5ffd5b505050506040513d601f19601f820116820180604052508101906109d09190611149565b91509150866109e7576109e2826112a2565b6109f0565b6109f0816112a2565b6109fa908961128f565b975086610a075780610a09565b815b610a13908a610fea565b9850875f03610a26575050505050610a37565b50506001909301925061075f915050565b508360c001358311156106ce5760405162461bcd60e51b815260206004820152601160248201527014db1a5c1c1859d948195e18d959591959607a1b60448201526064016104c8565b6040805161010081019091525f90309063a8a590fd9080610aa46020870187610f6e565b6001600160a01b03168152602001856020016020810190610ac59190610f6e565b6001600160a01b03168152602001610ae06040870187610f90565b808060200260200160405190810160405280939291908181526020018383602002808284375f9201829052509385525050506020820152604001610b2642610e10610fea565b815260608087013560208301525f1960408301520161023e60a0870160808801610f6e565b5f808080610b5b858701876112bc565b5f80546040516371c54fc960e01b81529599509397509195509350916001600160a01b03909116906371c54fc990610b9b908890889088906004016111b0565b602060405180830381865afa158015610bb6573d5f803e3d5ffd5b505050506040513d601f19601f82011682018060405250810190610bda91906111d9565b90506001600160a01b0381163314610c345760405162461bcd60e51b815260206004820152601760248201527f496e76616c69642063616c6c6261636b2063616c6c657200000000000000000060448201526064016104c8565b5f808a13610c425788610c44565b895b90506001600160a01b038316610c65576040518a8152896020820152604081fd5b8015610ce5576040516323b872dd60e01b81526001600160a01b0384811660048301528381166024830152604482018390528716906323b872dd906064016020604051808303815f875af1158015610cbf573d5f803e3d5ffd5b505050506040513d601f19601f82011682018060405250810190610ce39190611313565b505b50505050505050505050565b5f808251604014610d7457604483511015610d415760405162461bcd60e51b815260206004820152601060248201526f2ab732bc3832b1ba32b21032b93937b960811b60448201526064016104c8565b60048301925082806020019051810190610d5b9190611342565b60405162461bcd60e51b81526004016104c891906113ea565b82806020019051810190610d889190611149565b91509150915091565b5f60a08284031215610da1575f80fd5b50919050565b5f60208284031215610db7575f80fd5b813567ffffffffffffffff811115610dcd575f80fd5b610dd984828501610d91565b949350505050565b6001600160a01b0381168114610df5575f80fd5b50565b8015158114610df5575f80fd5b5f8083601f840112610e15575f80fd5b50813567ffffffffffffffff811115610e2c575f80fd5b602083019150836020828501011115610e43575f80fd5b9250929050565b5f805f805f805f60c0888a031215610e60575f80fd5b8735610e6b81610de1565b96506020880135610e7b81610de1565b95506040880135610e8b81610df8565b9450606088013593506080880135610ea281610de1565b925060a088013567ffffffffffffffff811115610ebd575f80fd5b610ec98a828b01610e05565b989b979a50959850939692959293505050565b5f6101008284031215610da1575f80fd5b5f60208284031215610efd575f80fd5b813567ffffffffffffffff811115610f13575f80fd5b610dd984828501610edc565b5f805f8060608587031215610f32575f80fd5b8435935060208501359250604085013567ffffffffffffffff811115610f56575f80fd5b610f6287828801610e05565b95989497509550505050565b5f60208284031215610f7e575f80fd5b8135610f8981610de1565b9392505050565b5f808335601e19843603018112610fa5575f80fd5b83018035915067ffffffffffffffff821115610fbf575f80fd5b6020019150600581901b3603821315610e43575f80fd5b634e487b7160e01b5f52601160045260245ffd5b808201808211156102a6576102a6610fd6565b80516001600160a01b0390811683526020808301519091168184015260408083015161010091850182905280519185018290525f92610120860192918101918491905b8083101561106657835163ffffffff168552938101939281019260019290920191611040565b50505050606083015161108460608601826001600160a01b03169052565b506080830151608085015260a083015160a085015260c083015160c085015260e08301516110bd60e08601826001600160a01b03169052565b509392505050565b602081525f610f896020830184610ffd565b5f602082840312156110e7575f80fd5b5051919050565b6001600160a01b0387811682528615156020830152604082018690528416606082015260a06080820181905281018290525f828460c08401375f60c0848401015260c0601f19601f8501168301019050979650505050505050565b5f806040838503121561115a575f80fd5b505080516020909101519092909150565b634e487b7160e01b5f52603260045260245ffd5b803563ffffffff81168114611192575f80fd5b919050565b5f602082840312156111a7575f80fd5b610f898261117f565b6001600160a01b03938416815291909216602082015263ffffffff909116604082015260600190565b5f602082840312156111e9575f80fd5b8151610f8981610de1565b5f5b8381101561120e5781810151838201526020016111f6565b50505f910152565b5f815180845261122d8160208601602086016111f4565b601f01601f19169290920160200192915050565b6001600160a01b03878116825286811660208301528515156040830152606082018590528316608082015260c060a082018190525f9061128390830184611216565b98975050505050505050565b818103818111156102a6576102a6610fd6565b5f600160ff1b82016112b6576112b6610fd6565b505f0390565b5f805f80608085870312156112cf575f80fd5b84356112da81610de1565b935060208501356112ea81610de1565b92506112f86040860161117f565b9150606085013561130881610de1565b939692955090935050565b5f60208284031215611323575f80fd5b8151610f8981610df8565b634e487b7160e01b5f52604160045260245ffd5b5f60208284031215611352575f80fd5b815167ffffffffffffffff80821115611369575f80fd5b818401915084601f83011261137c575f80fd5b81518181111561138e5761138e61132e565b604051601f8201601f19908116603f011681019083821181831017156113b6576113b661132e565b816040528281528760208487010111156113ce575f80fd5b6113df8360208301602088016111f4565b979650505050505050565b602081525f610f89602083018461121656fea2646970667358221220e4b2112b5b0a9838420920d6dd493e213087d92849c1aff18970e9b0f56d8b8d64736f6c63430008180033","linkReferences":{}},"methodIdentifiers":{"exactInput((address,address,uint32[],address,uint256,uint256,uint256,uint160))":"6c207ad0","exactOutput((address,address,uint32[],address,uint256,uint256,uint256,uint160))":"a8a590fd","poolManager()":"dc4c90d3","quoteExactInput((address,address,uint32[],uint256,uint160))":"3439aade","quoteExactOutput((address,address,uint32[],uint256,uint160))":"ae5ab5e1","swapCallback(int256,int256,bytes)":"fa483e72","swapInPool(address,address,bool,int256,uint160,bytes)":"393dd1da"},"id":24}